{
  "_format": "hh-sol-artifact-1",
  "contractName": "MyEpicNFT",
  "sourceName": "contracts/MyEpicNFT.sol",
  "abi": [
    {
      "inputs": [],
      "stateMutability": "nonpayable",
      "type": "constructor"
    },
    {
      "anonymous": false,
      "inputs": [
        {
          "indexed": true,
          "internalType": "address",
          "name": "owner",
          "type": "address"
        },
        {
          "indexed": true,
          "internalType": "address",
          "name": "approved",
          "type": "address"
        },
        {
          "indexed": true,
          "internalType": "uint256",
          "name": "tokenId",
          "type": "uint256"
        }
      ],
      "name": "Approval",
      "type": "event"
    },
    {
      "anonymous": false,
      "inputs": [
        {
          "indexed": true,
          "internalType": "address",
          "name": "owner",
          "type": "address"
        },
        {
          "indexed": true,
          "internalType": "address",
          "name": "operator",
          "type": "address"
        },
        {
          "indexed": false,
          "internalType": "bool",
          "name": "approved",
          "type": "bool"
        }
      ],
      "name": "ApprovalForAll",
      "type": "event"
    },
    {
      "anonymous": false,
      "inputs": [
        {
          "indexed": false,
          "internalType": "address",
          "name": "sender",
          "type": "address"
        },
        {
          "indexed": false,
          "internalType": "uint256",
          "name": "tokenId",
          "type": "uint256"
        }
      ],
      "name": "NewEpicNFTMinted",
      "type": "event"
    },
    {
      "anonymous": false,
      "inputs": [
        {
          "indexed": true,
          "internalType": "address",
          "name": "from",
          "type": "address"
        },
        {
          "indexed": true,
          "internalType": "address",
          "name": "to",
          "type": "address"
        },
        {
          "indexed": true,
          "internalType": "uint256",
          "name": "tokenId",
          "type": "uint256"
        }
      ],
      "name": "Transfer",
      "type": "event"
    },
    {
      "inputs": [
        {
          "internalType": "address",
          "name": "to",
          "type": "address"
        },
        {
          "internalType": "uint256",
          "name": "tokenId",
          "type": "uint256"
        }
      ],
      "name": "approve",
      "outputs": [],
      "stateMutability": "nonpayable",
      "type": "function"
    },
    {
      "inputs": [
        {
          "internalType": "address",
          "name": "owner",
          "type": "address"
        }
      ],
      "name": "balanceOf",
      "outputs": [
        {
          "internalType": "uint256",
          "name": "",
          "type": "uint256"
        }
      ],
      "stateMutability": "view",
      "type": "function"
    },
    {
      "inputs": [
        {
          "internalType": "uint256",
          "name": "tokenId",
          "type": "uint256"
        }
      ],
      "name": "getApproved",
      "outputs": [
        {
          "internalType": "address",
          "name": "",
          "type": "address"
        }
      ],
      "stateMutability": "view",
      "type": "function"
    },
    {
      "inputs": [],
      "name": "getTotalNFTsMintedSoFar",
      "outputs": [
        {
          "internalType": "uint256",
          "name": "total",
          "type": "uint256"
        }
      ],
      "stateMutability": "view",
      "type": "function"
    },
    {
      "inputs": [
        {
          "internalType": "address",
          "name": "owner",
          "type": "address"
        },
        {
          "internalType": "address",
          "name": "operator",
          "type": "address"
        }
      ],
      "name": "isApprovedForAll",
      "outputs": [
        {
          "internalType": "bool",
          "name": "",
          "type": "bool"
        }
      ],
      "stateMutability": "view",
      "type": "function"
    },
    {
      "inputs": [
        {
          "internalType": "string",
          "name": "ipfsHash",
          "type": "string"
        }
      ],
      "name": "makeAnEpicNFT",
      "outputs": [],
      "stateMutability": "nonpayable",
      "type": "function"
    },
    {
      "inputs": [],
      "name": "name",
      "outputs": [
        {
          "internalType": "string",
          "name": "",
          "type": "string"
        }
      ],
      "stateMutability": "view",
      "type": "function"
    },
    {
      "inputs": [
        {
          "internalType": "uint256",
          "name": "tokenId",
          "type": "uint256"
        }
      ],
      "name": "ownerOf",
      "outputs": [
        {
          "internalType": "address",
          "name": "",
          "type": "address"
        }
      ],
      "stateMutability": "view",
      "type": "function"
    },
    {
      "inputs": [
        {
          "internalType": "uint256",
          "name": "tokenId",
          "type": "uint256"
        }
      ],
      "name": "pickRandomColor",
      "outputs": [
        {
          "internalType": "string",
          "name": "",
          "type": "string"
        }
      ],
      "stateMutability": "view",
      "type": "function"
    },
    {
      "inputs": [
        {
          "internalType": "uint256",
          "name": "tokenId",
          "type": "uint256"
        }
      ],
      "name": "pickRandomFirstWord",
      "outputs": [
        {
          "internalType": "string",
          "name": "",
          "type": "string"
        }
      ],
      "stateMutability": "view",
      "type": "function"
    },
    {
      "inputs": [
        {
          "internalType": "uint256",
          "name": "tokenId",
          "type": "uint256"
        }
      ],
      "name": "pickRandomSecondWord",
      "outputs": [
        {
          "internalType": "string",
          "name": "",
          "type": "string"
        }
      ],
      "stateMutability": "view",
      "type": "function"
    },
    {
      "inputs": [
        {
          "internalType": "uint256",
          "name": "tokenId",
          "type": "uint256"
        }
      ],
      "name": "pickRandomThirdWord",
      "outputs": [
        {
          "internalType": "string",
          "name": "",
          "type": "string"
        }
      ],
      "stateMutability": "view",
      "type": "function"
    },
    {
      "inputs": [
        {
          "internalType": "address",
          "name": "from",
          "type": "address"
        },
        {
          "internalType": "address",
          "name": "to",
          "type": "address"
        },
        {
          "internalType": "uint256",
          "name": "tokenId",
          "type": "uint256"
        }
      ],
      "name": "safeTransferFrom",
      "outputs": [],
      "stateMutability": "nonpayable",
      "type": "function"
    },
    {
      "inputs": [
        {
          "internalType": "address",
          "name": "from",
          "type": "address"
        },
        {
          "internalType": "address",
          "name": "to",
          "type": "address"
        },
        {
          "internalType": "uint256",
          "name": "tokenId",
          "type": "uint256"
        },
        {
          "internalType": "bytes",
          "name": "data",
          "type": "bytes"
        }
      ],
      "name": "safeTransferFrom",
      "outputs": [],
      "stateMutability": "nonpayable",
      "type": "function"
    },
    {
      "inputs": [
        {
          "internalType": "address",
          "name": "operator",
          "type": "address"
        },
        {
          "internalType": "bool",
          "name": "approved",
          "type": "bool"
        }
      ],
      "name": "setApprovalForAll",
      "outputs": [],
      "stateMutability": "nonpayable",
      "type": "function"
    },
    {
      "inputs": [
        {
          "internalType": "bytes4",
          "name": "interfaceId",
          "type": "bytes4"
        }
      ],
      "name": "supportsInterface",
      "outputs": [
        {
          "internalType": "bool",
          "name": "",
          "type": "bool"
        }
      ],
      "stateMutability": "view",
      "type": "function"
    },
    {
      "inputs": [],
      "name": "symbol",
      "outputs": [
        {
          "internalType": "string",
          "name": "",
          "type": "string"
        }
      ],
      "stateMutability": "view",
      "type": "function"
    },
    {
      "inputs": [
        {
          "internalType": "uint256",
          "name": "tokenId",
          "type": "uint256"
        }
      ],
      "name": "tokenURI",
      "outputs": [
        {
          "internalType": "string",
          "name": "",
          "type": "string"
        }
      ],
      "stateMutability": "view",
      "type": "function"
    },
    {
      "inputs": [
        {
          "internalType": "address",
          "name": "from",
          "type": "address"
        },
        {
          "internalType": "address",
          "name": "to",
          "type": "address"
        },
        {
          "internalType": "uint256",
          "name": "tokenId",
          "type": "uint256"
        }
      ],
      "name": "transferFrom",
      "outputs": [],
      "stateMutability": "nonpayable",
      "type": "function"
    }
  ],
  "bytecode": "0x608060405260405180610100016040528060d3815260200162003ef460d3913960089080519060200190620000369291906200082c565b5060405180608001604052806056815260200162003fc76056913960099080519060200190620000689291906200082c565b506040518060c001604052806040518060400160405280600381526020017f526564000000000000000000000000000000000000000000000000000000000081525081526020016040518060400160405280600681526020017f59656c6c6f77000000000000000000000000000000000000000000000000000081525081526020016040518060400160405280600481526020017f426c75650000000000000000000000000000000000000000000000000000000081525081526020016040518060400160405280600581526020017f477265656e00000000000000000000000000000000000000000000000000000081525081526020016040518060400160405280600581526020017f426c61636b00000000000000000000000000000000000000000000000000000081525081526020016040518060400160405280600481526020017f50696e6b00000000000000000000000000000000000000000000000000000000815250815250600a906006620001e6929190620008bd565b506040518060c001604052806040518060400160405280600781526020017f436861726765720000000000000000000000000000000000000000000000000081525081526020016040518060400160405280600681526020017f4d6f62696c65000000000000000000000000000000000000000000000000000081525081526020016040518060400160405280600381526020017f50656e000000000000000000000000000000000000000000000000000000000081525081526020016040518060400160405280600681526020017f50656e63696c000000000000000000000000000000000000000000000000000081525081526020016040518060400160405280600b81526020017f4d6f6973747572697a657200000000000000000000000000000000000000000081525081526020016040518060400160405280600481526020017f536f666100000000000000000000000000000000000000000000000000000000815250815250600b90600662000364929190620008bd565b506040518060c001604052806040518060400160405280600781526020017f42697279616e690000000000000000000000000000000000000000000000000081525081526020016040518060400160405280600681526020017f427572676572000000000000000000000000000000000000000000000000000081525081526020016040518060400160405280600581526020017f4170706c6500000000000000000000000000000000000000000000000000000081525081526020016040518060400160405280600681526020017f42616e616e61000000000000000000000000000000000000000000000000000081525081526020016040518060400160405280600681526020017f506f7461746f000000000000000000000000000000000000000000000000000081525081526020016040518060400160405280600681526020017f546f6d61746f0000000000000000000000000000000000000000000000000000815250815250600c906006620004e2929190620008bd565b506040518060c001604052806040518060400160405280600381526020017f726564000000000000000000000000000000000000000000000000000000000081525081526020016040518060400160405280600781526020017f233038433241380000000000000000000000000000000000000000000000000081525081526020016040518060400160405280600581526020017f626c61636b00000000000000000000000000000000000000000000000000000081525081526020016040518060400160405280600681526020017f79656c6c6f77000000000000000000000000000000000000000000000000000081525081526020016040518060400160405280600481526020017f626c75650000000000000000000000000000000000000000000000000000000081525081526020016040518060400160405280600581526020017f677265656e000000000000000000000000000000000000000000000000000000815250815250600d90600662000660929190620008bd565b503480156200066e57600080fd5b506040518060400160405280600981526020017f5371756172654e465400000000000000000000000000000000000000000000008152506040518060400160405280600681526020017f53515541524500000000000000000000000000000000000000000000000000008152508160009080519060200190620006f39291906200082c565b5080600190805190602001906200070c9291906200082c565b5050506200075a6040518060400160405280601e81526020017f54686973206973206d79204e465420636f6e74726163742e20576f61682100008152506200076060201b620010ec1760201c565b62000ade565b6200080081604051602401620007779190620009f2565b6040516020818303038152906040527f41304fac000000000000000000000000000000000000000000000000000000007bffffffffffffffffffffffffffffffffffffffffffffffffffffffff19166020820180517bffffffffffffffffffffffffffffffffffffffffffffffffffffffff83818316178352505050506200080360201b60201c565b50565b60008151905060006a636f6e736f6c652e6c6f679050602083016000808483855afa5050505050565b8280546200083a9062000a68565b90600052602060002090601f0160209004810192826200085e5760008555620008aa565b82601f106200087957805160ff1916838001178555620008aa565b82800160010185558215620008aa579182015b82811115620008a95782518255916020019190600101906200088c565b5b509050620008b9919062000924565b5090565b82805482825590600052602060002090810192821562000911579160200282015b8281111562000910578251829080519060200190620008ff9291906200082c565b5091602001919060010190620008de565b5b50905062000920919062000943565b5090565b5b808211156200093f57600081600090555060010162000925565b5090565b5b808211156200096757600081816200095d91906200096b565b5060010162000944565b5090565b508054620009799062000a68565b6000825580601f106200098d5750620009ae565b601f016020900490600052602060002090810190620009ad919062000924565b5b50565b6000620009be8262000a16565b620009ca818562000a21565b9350620009dc81856020860162000a32565b620009e78162000acd565b840191505092915050565b6000602082019050818103600083015262000a0e8184620009b1565b905092915050565b600081519050919050565b600082825260208201905092915050565b60005b8381101562000a5257808201518184015260208101905062000a35565b8381111562000a62576000848401525b50505050565b6000600282049050600182168062000a8157607f821691505b6020821081141562000a985762000a9762000a9e565b5b50919050565b7f4e487b7100000000000000000000000000000000000000000000000000000000600052602260045260246000fd5b6000601f19601f8301169050919050565b6134068062000aee6000396000f3fe608060405234801561001057600080fd5b50600436106101215760003560e01c8063514dc8c6116100ad578063b187301f11610071578063b187301f1461032c578063b88d4fde1461035c578063c575757a14610378578063c87b56dd146103a8578063e985e9c5146103d857610121565b8063514dc8c6146102625780636352211e1461029257806370a08231146102c257806395d89b41146102f2578063a22cb4651461031057610121565b8063095ea7b3116100f4578063095ea7b3146101c257806323b872dd146101de5780632de38d68146101fa57806339fa8daf1461022a57806342842e0e1461024657610121565b806301ffc9a714610126578063060475901461015657806306fdde0314610174578063081812fc14610192575b600080fd5b610140600480360381019061013b9190612385565b610408565b60405161014d91906128fc565b60405180910390f35b61015e6104ea565b60405161016b9190612b17565b60405180910390f35b61017c6104fb565b6040516101899190612917565b60405180910390f35b6101ac60048036038101906101a79190612418565b61058d565b6040516101b9919061286c565b60405180910390f35b6101dc60048036038101906101d79190612349565b6105d3565b005b6101f860048036038101906101f39190612243565b6106eb565b005b610214600480360381019061020f9190612418565b61074b565b6040516102219190612917565b60405180910390f35b610244600480360381019061023f91906123d7565b610869565b005b610260600480360381019061025b9190612243565b610957565b005b61027c60048036038101906102779190612418565b610977565b6040516102899190612917565b60405180910390f35b6102ac60048036038101906102a79190612418565b610a95565b6040516102b9919061286c565b60405180910390f35b6102dc60048036038101906102d791906121de565b610b47565b6040516102e99190612b17565b60405180910390f35b6102fa610bff565b6040516103079190612917565b60405180910390f35b61032a6004803603810190610325919061230d565b610c91565b005b61034660048036038101906103419190612418565b610ca7565b6040516103539190612917565b60405180910390f35b61037660048036038101906103719190612292565b610dc5565b005b610392600480360381019061038d9190612418565b610e27565b60405161039f9190612917565b60405180910390f35b6103c260048036038101906103bd9190612418565b610f45565b6040516103cf9190612917565b60405180910390f35b6103f260048036038101906103ed9190612207565b611058565b6040516103ff91906128fc565b60405180910390f35b60007f80ac58cd000000000000000000000000000000000000000000000000000000007bffffffffffffffffffffffffffffffffffffffffffffffffffffffff1916827bffffffffffffffffffffffffffffffffffffffffffffffffffffffff191614806104d357507f5b5e139f000000000000000000000000000000000000000000000000000000007bffffffffffffffffffffffffffffffffffffffffffffffffffffffff1916827bffffffffffffffffffffffffffffffffffffffffffffffffffffffff1916145b806104e357506104e282611185565b5b9050919050565b60006104f660076111ef565b905090565b60606000805461050a90612d6d565b80601f016020809104026020016040519081016040528092919081815260200182805461053690612d6d565b80156105835780601f1061055857610100808354040283529160200191610583565b820191906000526020600020905b81548152906001019060200180831161056657829003601f168201915b5050505050905090565b6000610598826111fd565b6004600083815260200190815260200160002060009054906101000a900473ffffffffffffffffffffffffffffffffffffffff169050919050565b60006105de82610a95565b90508073ffffffffffffffffffffffffffffffffffffffff168373ffffffffffffffffffffffffffffffffffffffff16141561064f576040517f08c379a000000000000000000000000000000000000000000000000000000000815260040161064690612ab7565b60405180910390fd5b8073ffffffffffffffffffffffffffffffffffffffff1661066e611248565b73ffffffffffffffffffffffffffffffffffffffff16148061069d575061069c81610697611248565b611058565b5b6106dc576040517f08c379a00000000000000000000000000000000000000000000000000000000081526004016106d390612a57565b60405180910390fd5b6106e68383611250565b505050565b6106fc6106f6611248565b82611309565b61073b576040517f08c379a000000000000000000000000000000000000000000000000000000000815260040161073290612ad7565b60405180910390fd5b61074683838361139e565b505050565b6060600061077f61075b84611605565b60405160200161076b9190612828565b6040516020818303038152906040526117b2565b9050600a80549050816107929190612e19565b9050600a81815481106107ce577f4e487b7100000000000000000000000000000000000000000000000000000000600052603260045260246000fd5b9060005260206000200180546107e390612d6d565b80601f016020809104026020016040519081016040528092919081815260200182805461080f90612d6d565b801561085c5780601f106108315761010080835404028352916020019161085c565b820191906000526020600020905b81548152906001019060200180831161083f57829003601f168201915b5050505050915050919050565b600061087560076111ef565b9050603281106108ba576040517f08c379a00000000000000000000000000000000000000000000000000000000081526004016108b190612af7565b60405180910390fd5b6108c433826117e5565b6108ed81836040516020016108d99190612806565b604051602081830303815290604052611803565b6108f76007611877565b61091a6040518060600160405280602581526020016133ac60259139823361188d565b7febb98688741ffa4c7589bf325de30cf7becb63de567842e1ccdb6cb949fdc82c338260405161094b9291906128d3565b60405180910390a15050565b61097283838360405180602001604052806000815250610dc5565b505050565b606060006109ab61098784611605565b604051602001610997919061284a565b6040516020818303038152906040526117b2565b9050600d80549050816109be9190612e19565b9050600d81815481106109fa577f4e487b7100000000000000000000000000000000000000000000000000000000600052603260045260246000fd5b906000526020600020018054610a0f90612d6d565b80601f0160208091040260200160405190810160405280929190818152602001828054610a3b90612d6d565b8015610a885780601f10610a5d57610100808354040283529160200191610a88565b820191906000526020600020905b815481529060010190602001808311610a6b57829003601f168201915b5050505050915050919050565b6000806002600084815260200190815260200160002060009054906101000a900473ffffffffffffffffffffffffffffffffffffffff169050600073ffffffffffffffffffffffffffffffffffffffff168173ffffffffffffffffffffffffffffffffffffffff161415610b3e576040517f08c379a0000000000000000000000000000000000000000000000000000000008152600401610b3590612a97565b60405180910390fd5b80915050919050565b60008073ffffffffffffffffffffffffffffffffffffffff168273ffffffffffffffffffffffffffffffffffffffff161415610bb8576040517f08c379a0000000000000000000000000000000000000000000000000000000008152600401610baf90612a17565b60405180910390fd5b600360008373ffffffffffffffffffffffffffffffffffffffff1673ffffffffffffffffffffffffffffffffffffffff168152602001908152602001600020549050919050565b606060018054610c0e90612d6d565b80601f0160208091040260200160405190810160405280929190818152602001828054610c3a90612d6d565b8015610c875780601f10610c5c57610100808354040283529160200191610c87565b820191906000526020600020905b815481529060010190602001808311610c6a57829003601f168201915b5050505050905090565b610ca3610c9c611248565b838361192c565b5050565b60606000610cdb610cb784611605565b604051602001610cc791906127e4565b6040516020818303038152906040526117b2565b9050600b8054905081610cee9190612e19565b9050600b8181548110610d2a577f4e487b7100000000000000000000000000000000000000000000000000000000600052603260045260246000fd5b906000526020600020018054610d3f90612d6d565b80601f0160208091040260200160405190810160405280929190818152602001828054610d6b90612d6d565b8015610db85780601f10610d8d57610100808354040283529160200191610db8565b820191906000526020600020905b815481529060010190602001808311610d9b57829003601f168201915b5050505050915050919050565b610dd6610dd0611248565b83611309565b610e15576040517f08c379a0000000000000000000000000000000000000000000000000000000008152600401610e0c90612ad7565b60405180910390fd5b610e2184848484611a99565b50505050565b60606000610e5b610e3784611605565b604051602001610e4791906127c2565b6040516020818303038152906040526117b2565b9050600c8054905081610e6e9190612e19565b9050600c8181548110610eaa577f4e487b7100000000000000000000000000000000000000000000000000000000600052603260045260246000fd5b906000526020600020018054610ebf90612d6d565b80601f0160208091040260200160405190810160405280929190818152602001828054610eeb90612d6d565b8015610f385780601f10610f0d57610100808354040283529160200191610f38565b820191906000526020600020905b815481529060010190602001808311610f1b57829003601f168201915b5050505050915050919050565b6060610f50826111fd565b6000600660008481526020019081526020016000208054610f7090612d6d565b80601f0160208091040260200160405190810160405280929190818152602001828054610f9c90612d6d565b8015610fe95780601f10610fbe57610100808354040283529160200191610fe9565b820191906000526020600020905b815481529060010190602001808311610fcc57829003601f168201915b505050505090506000610ffa611af5565b9050600081511415611010578192505050611053565b60008251111561104557808260405160200161102d92919061279e565b60405160208183030381529060405292505050611053565b61104e84611b0c565b925050505b919050565b6000600560008473ffffffffffffffffffffffffffffffffffffffff1673ffffffffffffffffffffffffffffffffffffffff16815260200190815260200160002060008373ffffffffffffffffffffffffffffffffffffffff1673ffffffffffffffffffffffffffffffffffffffff16815260200190815260200160002060009054906101000a900460ff16905092915050565b611182816040516024016111009190612917565b6040516020818303038152906040527f41304fac000000000000000000000000000000000000000000000000000000007bffffffffffffffffffffffffffffffffffffffffffffffffffffffff19166020820180517bffffffffffffffffffffffffffffffffffffffffffffffffffffffff8381831617835250505050611b74565b50565b60007f01ffc9a7000000000000000000000000000000000000000000000000000000007bffffffffffffffffffffffffffffffffffffffffffffffffffffffff1916827bffffffffffffffffffffffffffffffffffffffffffffffffffffffff1916149050919050565b600081600001549050919050565b61120681611b9d565b611245576040517f08c379a000000000000000000000000000000000000000000000000000000000815260040161123c90612a97565b60405180910390fd5b50565b600033905090565b816004600083815260200190815260200160002060006101000a81548173ffffffffffffffffffffffffffffffffffffffff021916908373ffffffffffffffffffffffffffffffffffffffff160217905550808273ffffffffffffffffffffffffffffffffffffffff166112c383610a95565b73ffffffffffffffffffffffffffffffffffffffff167f8c5be1e5ebec7d5bd14f71427d1e84f3dd0314c0f7b2291e5b200ac8c7c3b92560405160405180910390a45050565b60008061131583610a95565b90508073ffffffffffffffffffffffffffffffffffffffff168473ffffffffffffffffffffffffffffffffffffffff16148061135757506113568185611058565b5b8061139557508373ffffffffffffffffffffffffffffffffffffffff1661137d8461058d565b73ffffffffffffffffffffffffffffffffffffffff16145b91505092915050565b8273ffffffffffffffffffffffffffffffffffffffff166113be82610a95565b73ffffffffffffffffffffffffffffffffffffffff1614611414576040517f08c379a000000000000000000000000000000000000000000000000000000000815260040161140b90612997565b60405180910390fd5b600073ffffffffffffffffffffffffffffffffffffffff168273ffffffffffffffffffffffffffffffffffffffff161415611484576040517f08c379a000000000000000000000000000000000000000000000000000000000815260040161147b906129d7565b60405180910390fd5b61148f838383611c09565b61149a600082611250565b6001600360008573ffffffffffffffffffffffffffffffffffffffff1673ffffffffffffffffffffffffffffffffffffffff16815260200190815260200160002060008282546114ea9190612c83565b925050819055506001600360008473ffffffffffffffffffffffffffffffffffffffff1673ffffffffffffffffffffffffffffffffffffffff16815260200190815260200160002060008282546115419190612bfc565b92505081905550816002600083815260200190815260200160002060006101000a81548173ffffffffffffffffffffffffffffffffffffffff021916908373ffffffffffffffffffffffffffffffffffffffff160217905550808273ffffffffffffffffffffffffffffffffffffffff168473ffffffffffffffffffffffffffffffffffffffff167fddf252ad1be2c89b69c2b068fc378daa952ba7f163c4a11628f55a4df523b3ef60405160405180910390a4611600838383611c0e565b505050565b6060600082141561164d576040518060400160405280600181526020017f300000000000000000000000000000000000000000000000000000000000000081525090506117ad565b600082905060005b6000821461167f57808061166890612dd0565b915050600a826116789190612c52565b9150611655565b60008167ffffffffffffffff8111156116c1577f4e487b7100000000000000000000000000000000000000000000000000000000600052604160045260246000fd5b6040519080825280601f01601f1916602001820160405280156116f35781602001600182028036833780820191505090505b5090505b600085146117a65760018261170c9190612c83565b9150600a8561171b9190612e19565b60306117279190612bfc565b60f81b818381518110611763577f4e487b7100000000000000000000000000000000000000000000000000000000600052603260045260246000fd5b60200101907effffffffffffffffffffffffffffffffffffffffffffffffffffffffffffff1916908160001a905350600a8561179f9190612c52565b94506116f7565b8093505050505b919050565b6000816040516020016117c59190612787565b6040516020818303038152906040528051906020012060001c9050919050565b6117ff828260405180602001604052806000815250611c13565b5050565b61180c82611b9d565b61184b576040517f08c379a000000000000000000000000000000000000000000000000000000000815260040161184290612a37565b60405180910390fd5b80600660008481526020019081526020016000209080519060200190611872929190612002565b505050565b6001816000016000828254019250508190555050565b6119278383836040516024016118a593929190612939565b6040516020818303038152906040527f1c7ec448000000000000000000000000000000000000000000000000000000007bffffffffffffffffffffffffffffffffffffffffffffffffffffffff19166020820180517bffffffffffffffffffffffffffffffffffffffffffffffffffffffff8381831617835250505050611b74565b505050565b8173ffffffffffffffffffffffffffffffffffffffff168373ffffffffffffffffffffffffffffffffffffffff16141561199b576040517f08c379a0000000000000000000000000000000000000000000000000000000008152600401611992906129f7565b60405180910390fd5b80600560008573ffffffffffffffffffffffffffffffffffffffff1673ffffffffffffffffffffffffffffffffffffffff16815260200190815260200160002060008473ffffffffffffffffffffffffffffffffffffffff1673ffffffffffffffffffffffffffffffffffffffff16815260200190815260200160002060006101000a81548160ff0219169083151502179055508173ffffffffffffffffffffffffffffffffffffffff168373ffffffffffffffffffffffffffffffffffffffff167f17307eab39ab6107e8899845ad3d59bd9653f200f220920489ca2b5937696c3183604051611a8c91906128fc565b60405180910390a3505050565b611aa484848461139e565b611ab084848484611c6e565b611aef576040517f08c379a0000000000000000000000000000000000000000000000000000000008152600401611ae690612977565b60405180910390fd5b50505050565b606060405180602001604052806000815250905090565b6060611b17826111fd565b6000611b21611af5565b90506000815111611b415760405180602001604052806000815250611b6c565b80611b4b84611605565b604051602001611b5c92919061279e565b6040516020818303038152906040525b915050919050565b60008151905060006a636f6e736f6c652e6c6f679050602083016000808483855afa5050505050565b60008073ffffffffffffffffffffffffffffffffffffffff166002600084815260200190815260200160002060009054906101000a900473ffffffffffffffffffffffffffffffffffffffff1673ffffffffffffffffffffffffffffffffffffffff1614159050919050565b505050565b505050565b611c1d8383611e05565b611c2a6000848484611c6e565b611c69576040517f08c379a0000000000000000000000000000000000000000000000000000000008152600401611c6090612977565b60405180910390fd5b505050565b6000611c8f8473ffffffffffffffffffffffffffffffffffffffff16611fdf565b15611df8578373ffffffffffffffffffffffffffffffffffffffff1663150b7a02611cb8611248565b8786866040518563ffffffff1660e01b8152600401611cda9493929190612887565b602060405180830381600087803b158015611cf457600080fd5b505af1925050508015611d2557506040513d601f19601f82011682018060405250810190611d2291906123ae565b60015b611da8573d8060008114611d55576040519150601f19603f3d011682016040523d82523d6000602084013e611d5a565b606091505b50600081511415611da0576040517f08c379a0000000000000000000000000000000000000000000000000000000008152600401611d9790612977565b60405180910390fd5b805181602001fd5b63150b7a0260e01b7bffffffffffffffffffffffffffffffffffffffffffffffffffffffff1916817bffffffffffffffffffffffffffffffffffffffffffffffffffffffff191614915050611dfd565b600190505b949350505050565b600073ffffffffffffffffffffffffffffffffffffffff168273ffffffffffffffffffffffffffffffffffffffff161415611e75576040517f08c379a0000000000000000000000000000000000000000000000000000000008152600401611e6c90612a77565b60405180910390fd5b611e7e81611b9d565b15611ebe576040517f08c379a0000000000000000000000000000000000000000000000000000000008152600401611eb5906129b7565b60405180910390fd5b611eca60008383611c09565b6001600360008473ffffffffffffffffffffffffffffffffffffffff1673ffffffffffffffffffffffffffffffffffffffff1681526020019081526020016000206000828254611f1a9190612bfc565b92505081905550816002600083815260200190815260200160002060006101000a81548173ffffffffffffffffffffffffffffffffffffffff021916908373ffffffffffffffffffffffffffffffffffffffff160217905550808273ffffffffffffffffffffffffffffffffffffffff16600073ffffffffffffffffffffffffffffffffffffffff167fddf252ad1be2c89b69c2b068fc378daa952ba7f163c4a11628f55a4df523b3ef60405160405180910390a4611fdb60008383611c0e565b5050565b6000808273ffffffffffffffffffffffffffffffffffffffff163b119050919050565b82805461200e90612d6d565b90600052602060002090601f0160209004810192826120305760008555612077565b82601f1061204957805160ff1916838001178555612077565b82800160010185558215612077579182015b8281111561207657825182559160200191906001019061205b565b5b5090506120849190612088565b5090565b5b808211156120a1576000816000905550600101612089565b5090565b60006120b86120b384612b57565b612b32565b9050828152602081018484840111156120d057600080fd5b6120db848285612d2b565b509392505050565b60006120f66120f184612b88565b612b32565b90508281526020810184848401111561210e57600080fd5b612119848285612d2b565b509392505050565b6000813590506121308161334f565b92915050565b60008135905061214581613366565b92915050565b60008135905061215a8161337d565b92915050565b60008151905061216f8161337d565b92915050565b600082601f83011261218657600080fd5b81356121968482602086016120a5565b91505092915050565b600082601f8301126121b057600080fd5b81356121c08482602086016120e3565b91505092915050565b6000813590506121d881613394565b92915050565b6000602082840312156121f057600080fd5b60006121fe84828501612121565b91505092915050565b6000806040838503121561221a57600080fd5b600061222885828601612121565b925050602061223985828601612121565b9150509250929050565b60008060006060848603121561225857600080fd5b600061226686828701612121565b935050602061227786828701612121565b9250506040612288868287016121c9565b9150509250925092565b600080600080608085870312156122a857600080fd5b60006122b687828801612121565b94505060206122c787828801612121565b93505060406122d8878288016121c9565b925050606085013567ffffffffffffffff8111156122f557600080fd5b61230187828801612175565b91505092959194509250565b6000806040838503121561232057600080fd5b600061232e85828601612121565b925050602061233f85828601612136565b9150509250929050565b6000806040838503121561235c57600080fd5b600061236a85828601612121565b925050602061237b858286016121c9565b9150509250929050565b60006020828403121561239757600080fd5b60006123a58482850161214b565b91505092915050565b6000602082840312156123c057600080fd5b60006123ce84828501612160565b91505092915050565b6000602082840312156123e957600080fd5b600082013567ffffffffffffffff81111561240357600080fd5b61240f8482850161219f565b91505092915050565b60006020828403121561242a57600080fd5b6000612438848285016121c9565b91505092915050565b61244a81612cb7565b82525050565b61245981612cc9565b82525050565b600061246a82612bb9565b6124748185612bcf565b9350612484818560208601612d3a565b61248d81612f06565b840191505092915050565b60006124a382612bc4565b6124ad8185612be0565b93506124bd818560208601612d3a565b6124c681612f06565b840191505092915050565b60006124dc82612bc4565b6124e68185612bf1565b93506124f6818560208601612d3a565b80840191505092915050565b600061250f603283612be0565b915061251a82612f17565b604082019050919050565b6000612532602583612be0565b915061253d82612f66565b604082019050919050565b6000612555601c83612be0565b915061256082612fb5565b602082019050919050565b6000612578600a83612bf1565b915061258382612fde565b600a82019050919050565b600061259b602483612be0565b91506125a682613007565b604082019050919050565b60006125be601983612be0565b91506125c982613056565b602082019050919050565b60006125e1600b83612bf1565b91506125ec8261307f565b600b82019050919050565b6000612604600783612bf1565b915061260f826130a8565b600782019050919050565b6000612627602983612be0565b9150612632826130d1565b604082019050919050565b600061264a602e83612be0565b915061265582613120565b604082019050919050565b600061266d603e83612be0565b91506126788261316f565b604082019050919050565b6000612690602083612be0565b915061269b826131be565b602082019050919050565b60006126b3601883612be0565b91506126be826131e7565b602082019050919050565b60006126d6602183612be0565b91506126e182613210565b604082019050919050565b60006126f9600a83612bf1565b91506127048261325f565b600a82019050919050565b600061271c600583612bf1565b915061272782613288565b600582019050919050565b600061273f602e83612be0565b915061274a826132b1565b604082019050919050565b6000612762602b83612be0565b915061276d82613300565b604082019050919050565b61278181612d21565b82525050565b600061279382846124d1565b915081905092915050565b60006127aa82856124d1565b91506127b682846124d1565b91508190509392505050565b60006127cd8261256b565b91506127d982846124d1565b915081905092915050565b60006127ef826125d4565b91506127fb82846124d1565b915081905092915050565b6000612811826125f7565b915061281d82846124d1565b915081905092915050565b6000612833826126ec565b915061283f82846124d1565b915081905092915050565b60006128558261270f565b915061286182846124d1565b915081905092915050565b60006020820190506128816000830184612441565b92915050565b600060808201905061289c6000830187612441565b6128a96020830186612441565b6128b66040830185612778565b81810360608301526128c8818461245f565b905095945050505050565b60006040820190506128e86000830185612441565b6128f56020830184612778565b9392505050565b60006020820190506129116000830184612450565b92915050565b600060208201905081810360008301526129318184612498565b905092915050565b600060608201905081810360008301526129538186612498565b90506129626020830185612778565b61296f6040830184612441565b949350505050565b6000602082019050818103600083015261299081612502565b9050919050565b600060208201905081810360008301526129b081612525565b9050919050565b600060208201905081810360008301526129d081612548565b9050919050565b600060208201905081810360008301526129f08161258e565b9050919050565b60006020820190508181036000830152612a10816125b1565b9050919050565b60006020820190508181036000830152612a308161261a565b9050919050565b60006020820190508181036000830152612a508161263d565b9050919050565b60006020820190508181036000830152612a7081612660565b9050919050565b60006020820190508181036000830152612a9081612683565b9050919050565b60006020820190508181036000830152612ab0816126a6565b9050919050565b60006020820190508181036000830152612ad0816126c9565b9050919050565b60006020820190508181036000830152612af081612732565b9050919050565b60006020820190508181036000830152612b1081612755565b9050919050565b6000602082019050612b2c6000830184612778565b92915050565b6000612b3c612b4d565b9050612b488282612d9f565b919050565b6000604051905090565b600067ffffffffffffffff821115612b7257612b71612ed7565b5b612b7b82612f06565b9050602081019050919050565b600067ffffffffffffffff821115612ba357612ba2612ed7565b5b612bac82612f06565b9050602081019050919050565b600081519050919050565b600081519050919050565b600082825260208201905092915050565b600082825260208201905092915050565b600081905092915050565b6000612c0782612d21565b9150612c1283612d21565b9250827fffffffffffffffffffffffffffffffffffffffffffffffffffffffffffffffff03821115612c4757612c46612e4a565b5b828201905092915050565b6000612c5d82612d21565b9150612c6883612d21565b925082612c7857612c77612e79565b5b828204905092915050565b6000612c8e82612d21565b9150612c9983612d21565b925082821015612cac57612cab612e4a565b5b828203905092915050565b6000612cc282612d01565b9050919050565b60008115159050919050565b60007fffffffff0000000000000000000000000000000000000000000000000000000082169050919050565b600073ffffffffffffffffffffffffffffffffffffffff82169050919050565b6000819050919050565b82818337600083830152505050565b60005b83811015612d58578082015181840152602081019050612d3d565b83811115612d67576000848401525b50505050565b60006002820490506001821680612d8557607f821691505b60208210811415612d9957612d98612ea8565b5b50919050565b612da882612f06565b810181811067ffffffffffffffff82111715612dc757612dc6612ed7565b5b80604052505050565b6000612ddb82612d21565b91507fffffffffffffffffffffffffffffffffffffffffffffffffffffffffffffffff821415612e0e57612e0d612e4a565b5b600182019050919050565b6000612e2482612d21565b9150612e2f83612d21565b925082612e3f57612e3e612e79565b5b828206905092915050565b7f4e487b7100000000000000000000000000000000000000000000000000000000600052601160045260246000fd5b7f4e487b7100000000000000000000000000000000000000000000000000000000600052601260045260246000fd5b7f4e487b7100000000000000000000000000000000000000000000000000000000600052602260045260246000fd5b7f4e487b7100000000000000000000000000000000000000000000000000000000600052604160045260246000fd5b6000601f19601f8301169050919050565b7f4552433732313a207472616e7366657220746f206e6f6e20455243373231526560008201527f63656976657220696d706c656d656e7465720000000000000000000000000000602082015250565b7f4552433732313a207472616e736665722066726f6d20696e636f72726563742060008201527f6f776e6572000000000000000000000000000000000000000000000000000000602082015250565b7f4552433732313a20746f6b656e20616c7265616479206d696e74656400000000600082015250565b7f54484952445f574f524400000000000000000000000000000000000000000000600082015250565b7f4552433732313a207472616e7366657220746f20746865207a65726f2061646460008201527f7265737300000000000000000000000000000000000000000000000000000000602082015250565b7f4552433732313a20617070726f766520746f2063616c6c657200000000000000600082015250565b7f5345434f4e445f574f5244000000000000000000000000000000000000000000600082015250565b7f697066733a2f2f00000000000000000000000000000000000000000000000000600082015250565b7f4552433732313a2061646472657373207a65726f206973206e6f74206120766160008201527f6c6964206f776e65720000000000000000000000000000000000000000000000602082015250565b7f45524337323155524953746f726167653a2055524920736574206f66206e6f6e60008201527f6578697374656e7420746f6b656e000000000000000000000000000000000000602082015250565b7f4552433732313a20617070726f76652063616c6c6572206973206e6f7420746f60008201527f6b656e206f776e6572206e6f7220617070726f76656420666f7220616c6c0000602082015250565b7f4552433732313a206d696e7420746f20746865207a65726f2061646472657373600082015250565b7f4552433732313a20696e76616c696420746f6b656e2049440000000000000000600082015250565b7f4552433732313a20617070726f76616c20746f2063757272656e74206f776e6560008201527f7200000000000000000000000000000000000000000000000000000000000000602082015250565b7f46495253545f574f524400000000000000000000000000000000000000000000600082015250565b7f434f4c4f52000000000000000000000000000000000000000000000000000000600082015250565b7f4552433732313a2063616c6c6572206973206e6f7420746f6b656e206f776e6560008201527f72206e6f7220617070726f766564000000000000000000000000000000000000602082015250565b7f536f7272792e2e2e2054686520636f6e74726163742063616e206f6e6c79206d60008201527f696e74203530204e465473000000000000000000000000000000000000000000602082015250565b61335881612cb7565b811461336357600080fd5b50565b61336f81612cc9565b811461337a57600080fd5b50565b61338681612cd5565b811461339157600080fd5b50565b61339d81612d21565b81146133a857600080fd5b5056fe416e204e465420772f20494420257320686173206265656e206d696e74656420746f202573a2646970667358221220b3fc82eafe17b869a0d462e55c4e675a1250f1e5d326113b2fbe40c3dfc8594464736f6c634300080400333c73766720786d6c6e733d27687474703a2f2f7777772e77332e6f72672f323030302f73766727207072657365727665417370656374526174696f3d27784d696e594d696e206d656574272076696577426f783d273020302033353020333530273e3c7374796c653e2e62617365207b2066696c6c3a2077686974653b20666f6e742d66616d696c793a2073657269663b20666f6e742d73697a653a20323470783b207d3c2f7374796c653e3c726563742077696474683d273130302527206865696768743d2731303025272066696c6c3d27272f3e3c7465787420783d273530252720793d273530252720636c6173733d27626173652720646f6d696e616e742d626173656c696e653d276d6964646c652720746578742d616e63686f723d276d6964646c65273e",
  "linkReferences": {},
  "deployedLinkReferences": {}
}